{
  "contractName": "All_In_One",
  "abi": [
    {
      "constant": false,
      "inputs": [
        {
          "internalType": "uint256",
          "name": "_adharCardNumber",
          "type": "uint256"
        },
        {
          "internalType": "bytes32",
          "name": "_name",
          "type": "bytes32"
        },
        {
          "internalType": "bytes32",
          "name": "_addres",
          "type": "bytes32"
        },
        {
          "internalType": "uint256",
          "name": "_phoneNo",
          "type": "uint256"
        },
        {
          "internalType": "bytes32",
          "name": "_bloodGroup",
          "type": "bytes32"
        },
        {
          "internalType": "uint256",
          "name": "_insuranceCompany",
          "type": "uint256"
        },
        {
          "internalType": "uint256",
          "name": "_emergencyContact",
          "type": "uint256"
        }
      ],
      "name": "addPatientInfo",
      "outputs": [],
      "payable": false,
      "stateMutability": "nonpayable",
      "type": "function"
    },
    {
      "constant": true,
      "inputs": [
        {
          "internalType": "uint256",
          "name": "_adharCardNumber",
          "type": "uint256"
        }
      ],
      "name": "getPatientInfo",
      "outputs": [
        {
          "internalType": "bytes32",
          "name": "name",
          "type": "bytes32"
        },
        {
          "internalType": "bytes32",
          "name": "addres",
          "type": "bytes32"
        },
        {
          "internalType": "uint256",
          "name": "phoneNo",
          "type": "uint256"
        },
        {
          "internalType": "bytes32",
          "name": "bloodGroup",
          "type": "bytes32"
        },
        {
          "internalType": "uint256",
          "name": "insuranceCompany",
          "type": "uint256"
        },
        {
          "internalType": "uint256",
          "name": "emergencyContacts",
          "type": "uint256"
        },
        {
          "internalType": "bytes32",
          "name": "Precautions",
          "type": "bytes32"
        }
      ],
      "payable": false,
      "stateMutability": "view",
      "type": "function"
    },
    {
      "constant": false,
      "inputs": [
        {
          "internalType": "uint256",
          "name": "_adharCardNumber",
          "type": "uint256"
        },
        {
          "internalType": "bytes32",
          "name": "_Precautions",
          "type": "bytes32"
        }
      ],
      "name": "UpdatePrecautions",
      "outputs": [],
      "payable": false,
      "stateMutability": "nonpayable",
      "type": "function"
    },
    {
      "constant": false,
      "inputs": [
        {
          "internalType": "uint256",
          "name": "_companyId",
          "type": "uint256"
        },
        {
          "internalType": "bytes32",
          "name": "_name",
          "type": "bytes32"
        },
        {
          "internalType": "uint256",
          "name": "phone_no",
          "type": "uint256"
        }
      ],
      "name": "addInsurancecompany",
      "outputs": [],
      "payable": false,
      "stateMutability": "nonpayable",
      "type": "function"
    },
    {
      "constant": true,
      "inputs": [
        {
          "internalType": "uint256",
          "name": "Insu_id",
          "type": "uint256"
        }
      ],
      "name": "getInsuranceCompany",
      "outputs": [
        {
          "internalType": "bytes32",
          "name": "name",
          "type": "bytes32"
        },
        {
          "internalType": "uint256",
          "name": "phoneNo",
          "type": "uint256"
        }
      ],
      "payable": false,
      "stateMutability": "view",
      "type": "function"
    },
    {
      "constant": false,
      "inputs": [
        {
          "internalType": "bytes32",
          "name": "_Medication",
          "type": "bytes32"
        }
      ],
      "name": "addNotCoverdMedicationInInsurance",
      "outputs": [],
      "payable": false,
      "stateMutability": "nonpayable",
      "type": "function"
    },
    {
      "constant": true,
      "inputs": [
        {
          "internalType": "uint64",
          "name": "_adharCardNumber",
          "type": "uint64"
        }
      ],
      "name": "applyForInsurance",
      "outputs": [
        {
          "internalType": "bytes32",
          "name": "InsuranceStatus",
          "type": "bytes32"
        }
      ],
      "payable": false,
      "stateMutability": "view",
      "type": "function"
    },
    {
      "constant": false,
      "inputs": [
        {
          "internalType": "uint256",
          "name": "patient_id",
          "type": "uint256"
        }
      ],
      "name": "createTreatmentID",
      "outputs": [
        {
          "internalType": "uint256",
          "name": "",
          "type": "uint256"
        }
      ],
      "payable": false,
      "stateMutability": "nonpayable",
      "type": "function"
    },
    {
      "constant": false,
      "inputs": [
        {
          "internalType": "uint256",
          "name": "patient_id",
          "type": "uint256"
        },
        {
          "internalType": "uint256",
          "name": "doctor_id",
          "type": "uint256"
        },
        {
          "internalType": "bytes32",
          "name": "diagnosis",
          "type": "bytes32"
        },
        {
          "internalType": "bytes32",
          "name": "test_conducted",
          "type": "bytes32"
        },
        {
          "internalType": "uint256",
          "name": "bill",
          "type": "uint256"
        },
        {
          "internalType": "bytes32",
          "name": "medicine",
          "type": "bytes32"
        }
      ],
      "name": "TreatPatient",
      "outputs": [
        {
          "internalType": "uint256",
          "name": "",
          "type": "uint256"
        }
      ],
      "payable": false,
      "stateMutability": "nonpayable",
      "type": "function"
    },
    {
      "constant": true,
      "inputs": [
        {
          "internalType": "uint256",
          "name": "_tid",
          "type": "uint256"
        }
      ],
      "name": "getTreatmentDetails",
      "outputs": [
        {
          "internalType": "uint256",
          "name": "p_id",
          "type": "uint256"
        },
        {
          "internalType": "uint256",
          "name": "d_id",
          "type": "uint256"
        },
        {
          "internalType": "bytes32",
          "name": "diagnosis",
          "type": "bytes32"
        },
        {
          "internalType": "bytes32",
          "name": "test_conducted",
          "type": "bytes32"
        },
        {
          "internalType": "uint256",
          "name": "bill",
          "type": "uint256"
        },
        {
          "internalType": "bytes32",
          "name": "medicine",
          "type": "bytes32"
        }
      ],
      "payable": false,
      "stateMutability": "view",
      "type": "function"
    },
    {
      "constant": false,
      "inputs": [
        {
          "internalType": "uint256",
          "name": "p_id",
          "type": "uint256"
        },
        {
          "internalType": "bytes32",
          "name": "_medication",
          "type": "bytes32"
        }
      ],
      "name": "addInsuranceKeep",
      "outputs": [],
      "payable": false,
      "stateMutability": "nonpayable",
      "type": "function"
    },
    {
      "constant": false,
      "inputs": [
        {
          "internalType": "uint256",
          "name": "doc_id",
          "type": "uint256"
        },
        {
          "internalType": "bytes32",
          "name": "name",
          "type": "bytes32"
        },
        {
          "internalType": "bytes32",
          "name": "practice_type",
          "type": "bytes32"
        },
        {
          "internalType": "bytes32",
          "name": "area_of_expertize",
          "type": "bytes32"
        },
        {
          "internalType": "uint256",
          "name": "phone_no",
          "type": "uint256"
        },
        {
          "internalType": "bytes32",
          "name": "Address",
          "type": "bytes32"
        }
      ],
      "name": "addDoctor",
      "outputs": [],
      "payable": false,
      "stateMutability": "nonpayable",
      "type": "function"
    },
    {
      "constant": true,
      "inputs": [
        {
          "internalType": "uint256",
          "name": "_d_id",
          "type": "uint256"
        }
      ],
      "name": "getDoctorDetails",
      "outputs": [
        {
          "internalType": "uint256",
          "name": "doc_id",
          "type": "uint256"
        },
        {
          "internalType": "bytes32",
          "name": "name",
          "type": "bytes32"
        },
        {
          "internalType": "bytes32",
          "name": "practice_type",
          "type": "bytes32"
        },
        {
          "internalType": "bytes32",
          "name": "area_of_expertize",
          "type": "bytes32"
        },
        {
          "internalType": "uint256",
          "name": "phone_no",
          "type": "uint256"
        },
        {
          "internalType": "bytes32",
          "name": "Address",
          "type": "bytes32"
        }
      ],
      "payable": false,
      "stateMutability": "view",
      "type": "function"
    },
    {
      "constant": false,
      "inputs": [
        {
          "internalType": "uint256",
          "name": "_adharCardNumber",
          "type": "uint256"
        }
      ],
      "name": "requestAccessToPatient",
      "outputs": [
        {
          "internalType": "uint256",
          "name": "",
          "type": "uint256"
        }
      ],
      "payable": false,
      "stateMutability": "nonpayable",
      "type": "function"
    },
    {
      "constant": false,
      "inputs": [
        {
          "internalType": "uint256",
          "name": "_adharCardNumber",
          "type": "uint256"
        },
        {
          "internalType": "uint256",
          "name": "OTP",
          "type": "uint256"
        }
      ],
      "name": "getDetailsOfAllTID",
      "outputs": [
        {
          "internalType": "uint256[]",
          "name": "",
          "type": "uint256[]"
        }
      ],
      "payable": false,
      "stateMutability": "nonpayable",
      "type": "function"
    },
    {
      "constant": false,
      "inputs": [
        {
          "internalType": "uint256",
          "name": "chem_id",
          "type": "uint256"
        },
        {
          "internalType": "bytes32",
          "name": "Address",
          "type": "bytes32"
        },
        {
          "internalType": "bytes32",
          "name": "name",
          "type": "bytes32"
        },
        {
          "internalType": "uint256",
          "name": "phone_no",
          "type": "uint256"
        }
      ],
      "name": "addChemist",
      "outputs": [],
      "payable": false,
      "stateMutability": "nonpayable",
      "type": "function"
    },
    {
      "constant": false,
      "inputs": [
        {
          "internalType": "uint256",
          "name": "chem_id",
          "type": "uint256"
        }
      ],
      "name": "getchemistinfo",
      "outputs": [
        {
          "internalType": "bytes32",
          "name": "Address",
          "type": "bytes32"
        },
        {
          "internalType": "bytes32",
          "name": "name",
          "type": "bytes32"
        },
        {
          "internalType": "uint256",
          "name": "phone_no",
          "type": "uint256"
        }
      ],
      "payable": false,
      "stateMutability": "nonpayable",
      "type": "function"
    },
    {
      "constant": true,
      "inputs": [
        {
          "internalType": "uint256",
          "name": "p_id",
          "type": "uint256"
        }
      ],
      "name": "giveMedicines",
      "outputs": [
        {
          "internalType": "bytes32",
          "name": "",
          "type": "bytes32"
        }
      ],
      "payable": false,
      "stateMutability": "view",
      "type": "function"
    },
    {
      "constant": false,
      "inputs": [],
      "name": "Identify",
      "outputs": [
        {
          "internalType": "uint256",
          "name": "val",
          "type": "uint256"
        }
      ],
      "payable": false,
      "stateMutability": "nonpayable",
      "type": "function"
    }
  ],
  "bytecode": "0x608060405234801561001057600080fd5b50611b41806100206000396000f3fe608060405234801561001057600080fd5b50600436106101215760003560e01c8063a6a471a7116100ad578063e22900ff11610071578063e22900ff14610572578063e4837d61146105bb578063e8de5cbf1461060b578063eb7d01c21461064d578063ff4e08771461068f57610121565b8063a6a471a7146103e8578063a6f27faf1461045c578063b40970c41461049e578063d0b8910114610508578063d48b2e921461055457610121565b80635eb3c37e116100f45780635eb3c37e1461026557806365df13dc146102b15780636c5a0ab2146102df5780637595424514610344578063828927c41461037c57610121565b80632debf4d9146101265780633b6d5b8c14610186578063412f8c35146101eb57806354ef9b3a1461022d575b600080fd5b610184600480360360c081101561013c57600080fd5b8101908080359060200190929190803590602001909291908035906020019092919080359060200190929190803590602001909291908035906020019092919050505061071c565b005b6101b26004803603602081101561019c57600080fd5b81019080803590602001909291905050506108ba565b60405180878152602001868152602001858152602001848152602001838152602001828152602001965050505050505060405180910390f35b6102176004803603602081101561020157600080fd5b81019080803590602001909291905050506109e3565b6040518082815260200191505060405180910390f35b6102636004803603604081101561024357600080fd5b810190808035906020019092919080359060200190929190505050610a03565b005b6102af6004803603608081101561027b57600080fd5b8101908080359060200190929190803590602001909291908035906020019092919080359060200190929190505050610af7565b005b6102dd600480360360208110156102c757600080fd5b8101908080359060200190929190505050610c80565b005b61030b600480360360208110156102f557600080fd5b8101908080359060200190929190505050610d27565b60405180878152602001868152602001858152602001848152602001838152602001828152602001965050505050505060405180910390f35b61037a6004803603604081101561035a57600080fd5b810190808035906020019092919080359060200190929190505050610dcf565b005b6103a86004803603602081101561039257600080fd5b8101908080359060200190929190505050610e0d565b6040518088815260200187815260200186815260200185815260200184815260200183815260200182815260200197505050505050505060405180910390f35b610446600480360360c08110156103fe57600080fd5b81019080803590602001909291908035906020019092919080359060200190929190803590602001909291908035906020019092919080359060200190929190505050610f0e565b6040518082815260200191505060405180910390f35b6104886004803603602081101561047257600080fd5b810190808035906020019092919050505061108d565b6040518082815260200191505060405180910390f35b610506600480360360e08110156104b457600080fd5b810190808035906020019092919080359060200190929190803590602001909291908035906020019092919080359060200190929190803590602001909291908035906020019092919050505061113d565b005b61053e6004803603602081101561051e57600080fd5b81019080803567ffffffffffffffff169060200190929190505050611300565b6040518082815260200191505060405180910390f35b61055c6115e0565b6040518082815260200191505060405180910390f35b61059e6004803603602081101561058857600080fd5b8101908080359060200190929190505050611664565b604051808381526020018281526020019250505060405180910390f35b6105e7600480360360208110156105d157600080fd5b810190808035906020019092919050505061173e565b60405180848152602001838152602001828152602001935050505060405180910390f35b61064b6004803603606081101561062157600080fd5b810190808035906020019092919080359060200190929190803590602001909291905050506117d1565b005b6106796004803603602081101561066357600080fd5b8101908080359060200190929190505050611968565b6040518082815260200191505060405180910390f35b6106c5600480360360408110156106a557600080fd5b810190808035906020019092919080359060200190929190505050611a1b565b6040518080602001828103825283818151815260200191508051906020019060200280838360005b838110156107085780820151818401526020810190506106ed565b505050509050019250505060405180910390f35b600080600088815260200190815260200160002054148061077c57506000600260003373ffffffffffffffffffffffffffffffffffffffff1673ffffffffffffffffffffffffffffffffffffffff16815260200190815260200160002054145b61078557600080fd5b6040518060c001604052808781526020018681526020018581526020018481526020018381526020018281525060076000888152602001908152602001600020600082015181600001556020820151816001015560408201518160020155606082015181600301556080820151816004015560a0820151816005015590505060026000808881526020019081526020016000208190555085600260003373ffffffffffffffffffffffffffffffffffffffff1673ffffffffffffffffffffffffffffffffffffffff16815260200190815260200160002081905550336003600088815260200190815260200160002060006101000a81548173ffffffffffffffffffffffffffffffffffffffff021916908373ffffffffffffffffffffffffffffffffffffffff160217905550505050505050565b6000806000806000806000600260003373ffffffffffffffffffffffffffffffffffffffff1673ffffffffffffffffffffffffffffffffffffffff168152602001908152602001600020549050600260008083815260200190815260200160002054148061093a5750600160008083815260200190815260200160002054145b61094357600080fd5b6007600089815260200190815260200160002060000154600760008a815260200190815260200160002060010154600760008b815260200190815260200160002060020154600760008c815260200190815260200160002060030154600760008d815260200190815260200160002060040154600760008e8152602001908152602001600020600501549650965096509650965096505091939550919395565b600080620f42438362022bed02816109f757fe5b06905080915050919050565b6000600260003373ffffffffffffffffffffffffffffffffffffffff1673ffffffffffffffffffffffffffffffffffffffff16815260200190815260200160002054905060026000808381526020019081526020016000205414610a6657600080fd5b6000600160008581526020019081526020016000206007016001806000878152602001908152602001600020600701805490500381548110610aa457fe5b906000526020600020015490506006600082815260200190815260200160002060060183908060018154018082558091505090600182039060005260206000200160009091929091909150555050505050565b6000806000868152602001908152602001600020541480610b5757506000600260003373ffffffffffffffffffffffffffffffffffffffff1673ffffffffffffffffffffffffffffffffffffffff16815260200190815260200160002054145b610b6057600080fd5b83600960008681526020019081526020016000206000018190555082600960008681526020019081526020016000206001018190555081600960008681526020019081526020016000206002018190555080600960008681526020019081526020016000206003018190555060046000808681526020019081526020016000208190555083600260003373ffffffffffffffffffffffffffffffffffffffff1673ffffffffffffffffffffffffffffffffffffffff16815260200190815260200160002081905550336003600086815260200190815260200160002060006101000a81548173ffffffffffffffffffffffffffffffffffffffff021916908373ffffffffffffffffffffffffffffffffffffffff16021790555050505050565b6000600260003373ffffffffffffffffffffffffffffffffffffffff1673ffffffffffffffffffffffffffffffffffffffff16815260200190815260200160002054905060036000808381526020019081526020016000205414610ce357600080fd5b600560008281526020019081526020016000206002018290806001815401808255809150509060018203906000526020600020016000909192909190915055505050565b60008060008060008060066000888152602001908152602001600020600001546006600089815260200190815260200160002060010154600660008a815260200190815260200160002060020154600660008b815260200190815260200160002060030154600660008c815260200190815260200160002060040154600660008d81526020019081526020016000206005015495509550955095509550955091939550919395565b60016000808481526020019081526020016000205414610dee57600080fd5b8060016000848152602001908152602001600020600601819055505050565b600080600080600080600060016000808a8152602001908152602001600020541480610e4b575060026000808a815260200190815260200160002054145b610e5457600080fd5b6001600089815260200190815260200160002060000154600160008a815260200190815260200160002060010154600160008b815260200190815260200160002060020154600160008c815260200190815260200160002060030154600160008d815260200190815260200160002060040154600160008e815260200190815260200160002060050154600160008f8152602001908152602001600020600601549650965096509650965096509650919395979092949650565b600080600260003373ffffffffffffffffffffffffffffffffffffffff1673ffffffffffffffffffffffffffffffffffffffff16815260200190815260200160002054905060016000808a8152602001908152602001600020541480610f865750600260008083815260200190815260200160002054145b610f8f57600080fd5b6000610f9a896109e3565b9050886006600083815260200190815260200160002060000181905550876006600083815260200190815260200160002060010181905550866006600083815260200190815260200160002060020181905550856006600083815260200190815260200160002060030181905550846006600083815260200190815260200160002060040181905550836006600083815260200190815260200160002060050181905550600160008a815260200190815260200160002060070181908060018154018082558091505090600182039060005260206000200160009091929091909150555080925050509695505050505050565b600080600260003373ffffffffffffffffffffffffffffffffffffffff1673ffffffffffffffffffffffffffffffffffffffff16815260200190815260200160002054905060006006600060016000878152602001908152602001600020600701600180600089815260200190815260200160002060070180549050038154811061111457fe5b906000526020600020015481526020019081526020016000206005015490508092505050919050565b60008060008981526020019081526020016000205414801561119e57506000600260003373ffffffffffffffffffffffffffffffffffffffff1673ffffffffffffffffffffffffffffffffffffffff16815260200190815260200160002054145b6111a757600080fd5b85600160008981526020019081526020016000206000018190555084600160008981526020019081526020016000206001018190555083600160008981526020019081526020016000206002018190555082600160008981526020019081526020016000206003018190555081600160008981526020019081526020016000206004018190555080600160008981526020019081526020016000206005018190555060016000808981526020019081526020016000208190555086600260003373ffffffffffffffffffffffffffffffffffffffff1673ffffffffffffffffffffffffffffffffffffffff16815260200190815260200160002081905550336003600089815260200190815260200160002060006101000a81548173ffffffffffffffffffffffffffffffffffffffff021916908373ffffffffffffffffffffffffffffffffffffffff16021790555050505050505050565b600080600260003373ffffffffffffffffffffffffffffffffffffffff1673ffffffffffffffffffffffffffffffffffffffff16815260200190815260200160002054905060016000808567ffffffffffffffff16815260200190815260200160002054148061138c575060026000808567ffffffffffffffff16815260200190815260200160002054145b80156113c8575060016000808381526020019081526020016000205414806113c7575060026000806002815260200190815260200160002054145b5b6113d157600080fd5b6000600160008567ffffffffffffffff1681526020019081526020016000206004015490506000600160008667ffffffffffffffff16815260200190815260200160002060070160018060008867ffffffffffffffff16815260200190815260200160002060070180549050038154811061144857fe5b9060005260206000200154905060006001905060008090505b600560008581526020019081526020016000206002018054905081101561158057600115158215151461149357611580565b60008090505b6006600085815260200190815260200160002060060180549050811015611572576006600085815260200190815260200160002060060181815481106114db57fe5b9060005260206000200154604051602001808281526020019150506040516020818303038152906040528051906020012060056000878152602001908152602001600020600201838154811061152d57fe5b90600052602060002001546040516020018082815260200191505060405160208183030381529060405280519060200120141561156d5760009250611572565b611499565b508080600101915050611461565b5080156115b3577f73756363657373000000000000000000000000000000000000000000000000009450505050506115db565b7f6661696c000000000000000000000000000000000000000000000000000000009450505050505b919050565b600080600260003373ffffffffffffffffffffffffffffffffffffffff1673ffffffffffffffffffffffffffffffffffffffff168152602001908152602001600020549050600080600083815260200190815260200160002054141561164a576000915050611661565b600080828152602001908152602001600020549150505b90565b6000806000600260003373ffffffffffffffffffffffffffffffffffffffff1673ffffffffffffffffffffffffffffffffffffffff16815260200190815260200160002054905060016000808381526020019081526020016000205414806116de5750600360008086815260200190815260200160002054145b6116e757600080fd5b60006005600086815260200190815260200160002060020180549050905060056000868152602001908152602001600020600001546005600087815260200190815260200160002060010154935093505050915091565b600080600060046000808681526020019081526020016000205414806117765750600160008086815260200190815260200160002054145b61177f57600080fd5b6009600085815260200190815260200160002060010154600960008681526020019081526020016000206002015460096000878152602001908152602001600020600301549250925092509193909250565b60008060008581526020019081526020016000205414801561183257506000600260003373ffffffffffffffffffffffffffffffffffffffff1673ffffffffffffffffffffffffffffffffffffffff16815260200190815260200160002054145b61183b57600080fd5b81600560008581526020019081526020016000206000018190555080600560008581526020019081526020016000206001018190555082600260003373ffffffffffffffffffffffffffffffffffffffff1673ffffffffffffffffffffffffffffffffffffffff1681526020019081526020016000208190555060036000808581526020019081526020016000208190555082600260003373ffffffffffffffffffffffffffffffffffffffff1673ffffffffffffffffffffffffffffffffffffffff16815260200190815260200160002081905550336003600085815260200190815260200160002060006101000a81548173ffffffffffffffffffffffffffffffffffffffff021916908373ffffffffffffffffffffffffffffffffffffffff160217905550505050565b600080600260003373ffffffffffffffffffffffffffffffffffffffff1673ffffffffffffffffffffffffffffffffffffffff168152602001908152602001600020549050600260008083815260200190815260200160002054146119cc57600080fd5b6000834202604051602001808281526020019150506040516020818303038152906040528051906020012060001c90508060086000868152602001908152602001600020819055505050919050565b60606000600260003373ffffffffffffffffffffffffffffffffffffffff1673ffffffffffffffffffffffffffffffffffffffff168152602001908152602001600020549050600260008083815260200190815260200160002054148015611a955750826008600086815260200190815260200160002054145b611a9e57600080fd5b60016000858152602001908152602001600020600701805480602002602001604051908101604052809291908181526020018280548015611afe57602002820191906000526020600020905b815481526020019060010190808311611aea575b50505050509150509291505056fea265627a7a72315820db64e50b6aa677ae6ef0299587d1c6a6507d40c0af60c8ea30f5997577b2a8bd64736f6c63430005100032",
  "source": "pragma solidity >=0.4.21 <0.6.0;\n//pragma experimental ABIEncoderV2;\n \n \ncontract All_In_One {\n    \n    // Paitent Structure here \n    \n    struct paitent {           \n        bytes32 name;\n        bytes32 addres;\n        uint phoneNo;\n        bytes32 bloodGroup;\n        uint insuranceCompanyId;\n        uint emergencyContact;\n        bytes32 Precautions;\n        uint [] treatmentId;\n    }\n    \n    mapping (uint => uint ) entitie;\n    mapping (uint => paitent ) p_info;\n    mapping (address => uint) addresstoId;\n    mapping (uint => address) IdtoAdress;\n    mapping(address => uint)balancesOfMoney;\n \n    \n    function addPatientInfo (uint _adharCardNumber, bytes32 _name, bytes32 _addres,uint _phoneNo ,bytes32 _bloodGroup , uint _insuranceCompany, uint _emergencyContact) public  {\n        require(entitie[_adharCardNumber]==0 && addresstoId[msg.sender]==0); \n        p_info[_adharCardNumber].name = _name;\n        p_info[_adharCardNumber].addres = _addres;\n        p_info[_adharCardNumber].phoneNo = _phoneNo;\n        p_info[_adharCardNumber].bloodGroup = _bloodGroup;\n        p_info[_adharCardNumber].insuranceCompanyId = _insuranceCompany;\n        p_info[_adharCardNumber].emergencyContact = _emergencyContact;\n        entitie[_adharCardNumber] = 1; \n        addresstoId[msg.sender] = _adharCardNumber;\n        IdtoAdress[_adharCardNumber] = msg.sender;\n    }\n    \n    function getPatientInfo(uint  _adharCardNumber) public view returns(bytes32 name , bytes32 addres,uint phoneNo ,bytes32 bloodGroup , uint insuranceCompany, uint emergencyContacts, bytes32 Precautions){\n        require(entitie[_adharCardNumber]==1 || entitie[_adharCardNumber]==2 );\n        return(p_info[_adharCardNumber].name, p_info[_adharCardNumber].addres, p_info[_adharCardNumber].phoneNo, p_info[_adharCardNumber].bloodGroup, p_info[_adharCardNumber].insuranceCompanyId, p_info[_adharCardNumber].emergencyContact,p_info[_adharCardNumber].Precautions);\n    }\n    \n    function UpdatePrecautions( uint _adharCardNumber,bytes32 _Precautions ) public {\n        require(entitie[_adharCardNumber]==1);\n        p_info[_adharCardNumber].Precautions = _Precautions;\n    }\n    \n    //---------------------------------------------------------------------------------------------------------------------------------\n    // Insurance is here \n    struct insuranceCompany {\n        bytes32 name ;\n        uint phoneNo;\n        bytes32 [] notCovered;\n    }\n    \n    mapping (uint => insuranceCompany)insu_info;\n \n    function addInsurancecompany (uint _companyId, bytes32 _name, uint phone_no) public{\n        require(entitie[_companyId]==0 && addresstoId[msg.sender]==0); \n        insu_info[_companyId].name = _name;\n        insu_info[_companyId].phoneNo = phone_no;\n        addresstoId[msg.sender] = _companyId;\n        entitie[_companyId]=3;\n        addresstoId[msg.sender] = _companyId;\n        IdtoAdress[_companyId] = msg.sender;\n    }\n    \n    function getInsuranceCompany (uint Insu_id) public view returns (bytes32 name, uint phoneNo){\n        uint val = addresstoId[msg.sender];\n        require(entitie[val]==1 || entitie[Insu_id]==3); \n        uint length = insu_info[Insu_id].notCovered.length;\n        return(insu_info[Insu_id].name, insu_info[Insu_id].phoneNo);\n    }\n    \n    function addNotCoverdMedicationInInsurance(bytes32 _Medication) public{\n        uint val = addresstoId[msg.sender];\n        require(entitie[val]==3); \n        insu_info[val].notCovered.push(_Medication);  \n    }\n    \n    function applyForInsurance(uint64 _adharCardNumber) public view returns(bytes32 InsuranceStatus){\n        uint val = addresstoId[msg.sender];\n        require((entitie[_adharCardNumber]==1 || entitie[_adharCardNumber]==2) && (entitie[val]==1 || entitie[2]==2));\n        uint insu_id = p_info[_adharCardNumber].insuranceCompanyId;\n        uint latestTreatmentid = p_info[_adharCardNumber].treatmentId[p_info[_adharCardNumber].treatmentId.length-1];\n        bool flag = true;\n        for(uint j=0;j<insu_info[insu_id].notCovered.length;j++){\n            if(flag!=true)\n            break;\n            else{\n                for(uint i=0;i<tid[latestTreatmentid].InsuranceKeep.length;){\n                    if(keccak256(abi.encodePacked(insu_info[insu_id].notCovered[j]))==keccak256(abi.encodePacked(tid[latestTreatmentid].InsuranceKeep[i])))\n                    {\n                        flag = false;\n                        break;\n                    }\n                }    \n            }\n        }\n        if(flag)\n        return(\"success\");\n        //return (0x496e737572616e6365205375636365737366756c6c7920436c61696d6564);\n        else\n        return(\"fail\");\n        //return (0x496e737572616e636520436c61696d696e67204661696c6564);\n    }\n    \n    //---------------------------------------------------------------------------------------------------------------------------------\n    // Treatment Structure here \n    struct treatment {\n        uint patient_id;\n        uint doctor_id;\n        bytes32 diagnosis;\n        bytes32 test_conducted;\n        uint bill;\n        bytes32 medicine;\n        bytes32 [] InsuranceKeep;\n    }\n    \n    mapping(uint=>treatment) tid;\n            \n    function createTreatmentID(uint patient_id) public returns (uint){\n        uint treatment_id = (142317*patient_id)%1000003;\n        return treatment_id;\n    }\n    \n    function TreatPatient(uint patient_id,uint doctor_id,bytes32 diagnosis,bytes32 test_conducted,uint bill,bytes32 medicine) public  returns (uint){\n        uint val = addresstoId[msg.sender];\n        require(entitie[patient_id]==1 || entitie[val]==2 );\n        uint _tid = createTreatmentID(patient_id);\n        tid[_tid].patient_id = patient_id;\n        tid[_tid].doctor_id = doctor_id;\n        tid[_tid].diagnosis = diagnosis;\n        tid[_tid].test_conducted = test_conducted;\n        tid[_tid].bill = bill;\n        tid[_tid].medicine = medicine;\n        p_info[patient_id].treatmentId.push(_tid); // pushing treatmentId to array in treatmentId.\n        return _tid;\n    }\n    \n    function getTreatmentDetails(uint _tid) public view returns (uint p_id,uint d_id,bytes32 diagnosis,bytes32 test_conducted,uint bill,bytes32 medicine) {\n        return (tid[_tid].patient_id,tid[_tid].doctor_id,tid[_tid].diagnosis,tid[_tid].test_conducted,tid[_tid].bill,tid[_tid].medicine);\n    }\n        \n    function addInsuranceKeep(uint p_id, bytes32  _medication) public {\n        uint val = addresstoId[msg.sender];\n        require(entitie[val]==2); \n        uint _t_id = p_info[p_id].treatmentId[p_info[p_id].treatmentId.length-1];\n        tid[_t_id].InsuranceKeep.push(_medication);   \n    }\n    \n    //---------------------------------------------------------------------------------------------------------------------------------\n    //Doctor starts here\n    \n     struct doctor{\n        uint doc_id;\n        bytes32 name;\n        bytes32 practice_type;\n        bytes32 area_of_expertize;\n        uint phone_no;\n        bytes32 Address;\n    }\n    \n    mapping(uint=>doctor) did;\n    mapping(uint => uint) Otp;\n    \n    function addDoctor(uint doc_id,bytes32 name,bytes32 practice_type,bytes32 area_of_expertize,uint phone_no,bytes32 Address) public {\n        require(entitie[doc_id]==0 || addresstoId[msg.sender]==0); \n        did[doc_id] = doctor(doc_id,name,practice_type,area_of_expertize,phone_no,Address);\n        entitie[doc_id]=2;\n        addresstoId[msg.sender] = doc_id;\n        IdtoAdress[doc_id] = msg.sender;\n    }\n \n    function getDoctorDetails(uint _d_id) public view returns (uint doc_id,bytes32 name,bytes32 practice_type,bytes32 area_of_expertize,uint phone_no,bytes32 Address){\n        uint val = addresstoId[msg.sender];\n        require(entitie[val]==2 || entitie[val]==1 ); \n        return( did[_d_id].doc_id,did[_d_id].name,did[_d_id].practice_type,did[_d_id].area_of_expertize,did[_d_id].phone_no,did[_d_id].Address);\n    }\n\n    function requestAccessToPatient(uint _adharCardNumber) public  returns(uint){\n           uint val = addresstoId[msg.sender];\n           require(entitie[val]==2);\n           uint otp = uint(keccak256(abi.encodePacked(now*_adharCardNumber)));\n           Otp[_adharCardNumber] = otp;\n       }\n       \n       function getDetailsOfAllTID(uint _adharCardNumber, uint OTP) public returns(uint [] memory){\n           uint val = addresstoId[msg.sender];\n           require(entitie[val]==2 && Otp[_adharCardNumber]==OTP);\n           return(p_info[_adharCardNumber].treatmentId);\n           \n       }\n\n    \n    //---------------------------------------------------------------------------------------------------------------------------------\n    //Medical store\n    \n    struct chemist {\n        uint chemist_id;\n        bytes32 Address;\n        bytes32 name;\n        uint phoneNo;\n        bytes32 [] medicines;\n    }\n    \n    mapping(uint=>chemist) cid;\n \n    function addChemist(uint chem_id, bytes32 Address, bytes32 name,uint phone_no) public {\n        require(entitie[chem_id]==0 || addresstoId[msg.sender]==0); \n        cid[chem_id].chemist_id = chem_id;\n        cid[chem_id].Address = Address;\n        cid[chem_id].name = name;\n        cid[chem_id].phoneNo = phone_no;\n        entitie[chem_id]=4;\n        addresstoId[msg.sender] = chem_id;\n        IdtoAdress[chem_id] = msg.sender;\n    }\n    \n    function getchemistinfo(uint chem_id) public returns(bytes32 Address, bytes32 name,uint phone_no){\n        require(entitie[chem_id]==4 || entitie[chem_id]==1); \n        return( cid[chem_id].Address,cid[chem_id].name,cid[chem_id].phoneNo);\n    }\n    \n    function giveMedicines(uint p_id) public view returns(bytes32){\n        uint val = addresstoId[msg.sender];\n        bytes32 medicatines = tid[p_info[p_id].treatmentId[p_info[p_id].treatmentId.length-1]].medicine;\n        return(medicatines);\n    }\n    \n//--------------------------------------------------------------------------------------------------------------------------\n//Identify\n \n    function Identify() public returns (uint val) {\n        uint No = addresstoId[msg.sender];\n        if(entitie[No]==0){\n            return(0);\n        }\n        else \n            return(entitie[No]);\n    }\n \n}\n \n \n \n \n \n \n \n \n \n \n \n \n \n",
  "sourcePath": "D:/Yash/BE project/HealthBlocks/contracts/All_In_One.sol",
  "compiler": {
    "name": "solc",
    "version": "0.5.16+commit.9c3226ce.Emscripten.clang"
  },
  "schemaVersion": "3.3.3",
  "updatedAt": "2021-07-12T04:12:05.972Z",
  "networkType": "ethereum",
  "devdoc": {
    "methods": {}
  },
  "userdoc": {
    "methods": {}
  }
}